:0400000002001332B5
:03000B0002168E4C
:07006C00E4F521F522E4F5A3
:0500730023F524E4F573
:0500780025F526E4F56A
:05007D0027F528E4F561
:0500820029F52AE4F558
:040087002BF52C75B4
:06008B002D00E4F533F541
:01009100343A
:0300920002000E5B
:05000E0012059E80FEBA
:0E0095007582A812019575823F120195758241
:0E00A300D312019575820012019575824012EC
:0C00B10001957582A11201957582C8129C
:0C00BD0001957582DA120195758212120D
:0C00C900019575828112019575827F12ED
:0C00D50001957582A41201957582A61297
:0C00E10001957582D51201957582801280
:0C00ED00019575828D1201957582141228
:0900F90001957582AF1201950218
:02010200012ECC
:09010400E58275F005A4FA7B0008
:03010D00BB05002F
:0E0110005016EB2A901F5393F582C002C003D5
:0A011E001201A7D003D0020B80E508
:060128007582000201A730
:02012E007A0055
:03013000BA08000A
:0E0133005023C002E4C0E08A821201591581F7
:04014100D0027B80ED
:0E014500758200C002C0031201A7D003D002D1
:05015300DBF00A80D87A
:010158002284
:08015900C008858108AA82E5B7
:0A0161000824FDF80606E50824FD59
:0C016B00F8740F56F582C002120195E5F1
:0C0177000824FDF8E6C4540FFB74104B84
:0D018300F582120195D00274B04AF5821287
:050190000195D00822DA
:0E019500AA82C002E4C0E075827812023E1514
:0401A300811581221F
:0E01A700AA82C0027440C0E075827812023E47
:0501B5001581158122F7
:0A01BA00AA82AB837C007D007E006A
:0901C400C3ED9AEE9B50138C0769
:0301CD00BF5A0016
:0501D00050030F80F850
:0901D5008F040DBD00E90E80E667
:0101DE0022FE
:0501DF00C281C2802274
:0701E400C281D280D281220A
:0901EB00A2009281D280C28022A0
:0B01F400D280A28192D7C280A2D72245
:0401FF00AA827B0055
:03020300BB080035
:0A0206005014EA30E704D2818002B0
:02021000C281A9
:0A021200D280C280EA2AFA0B80E7CE
:03021C000201F4E8
:06021F007A00D2817B0091
:03022500BB080013
:0E0228005011EA2AFAD280A281E433FC42028D
:05023600C2800B80EA0C
:03023B008A822292
:0A023E00C008858108AA82C00212E0
:0A02480001DFD0028A821201FFE5F7
:0A0252000824FDF886821201FFE582
:0A025C000824FCF886821201FF124C
:0502660001E4D00822B4
:0A026B00C008858108AA82C00212B3
:0C02750001DFD0028A82C0021201FFE506
:0A0281000824FDF886821201FF1226
:0D028B0001E41201DFD00274014AF5821275
:0D02980001FF12021FAA82D2F0C00285F001
:0502A500201201EB1224
:0902AA0001E4D0028A82D008228E
:0E02B3009000641201BAE4C0E0746BC0E07504
:0D02C10082D012023E15811581900064125A
:0E02CE0001BA7407C0E07468C0E07582D012F7
:0E02DC00023E158115817401C0E0746BC0E014
:0E02EA007582D012023E158115817403C0E0AA
:0E02F800741AC0E07582D012023E1581158185
:0E030600E4C0E07419C0E07582D012023E150A
:0E0314008115817408C0E0741BC0E07582D0B2
:0E03220012023E15811581E4C0E0741CC0E09B
:0E0330007582D012023E158115817403C0E063
:0E033E00741DC0E07582D012023E158115813B
:0E034C007422C0E07437C0E07582D012023E09
:0E035A0015811581E4C0E07438C0E07582D0D2
:0803680012023E1581158122ED
:0A037000C008858108C082C083C068
:0D037A00F005810581743BC0E07582D01252
:0C038700026BAD8215818D2D743CC0E02E
:0C0393007582D012026BAD8215818D2E98
:0E039F00743DC0E07582D012026BAD821581F4
:0C03AD008D2F743EC0E07582D012026BF0
:0C03B900AD8215818D30743FC0E075826C
:0C03C500D012026BAD8215818D317440A6
:0D03D100C0E07582D012026BAD8215818DE7
:0603DE0032AE2D7D00AFE0
:0A03E4002E7A00EF4205EA4206A857
:0C03EE00080886820886830886F0ED125D
:0803FA001CF1A3EE121CF1A896
:0C0402000808740226FAE40836FB08869D
:0A040E0004AD2FE5082404F808A649
:0A04180005187600AF307D00E508FE
:0E0422002404F8E6420708E642058A828B832E
:0C0430008CF0EF121CF1A3ED121CF1A8DF
:0C043C000808740426FAE40836FB088661
:0A04480004AD31E5082404F808A60D
:0A04520005187600AF327D00E508C2
:0E045C002404F8E6420708E642058A828B83F4
:0C046A008CF0EF121CF1A3ED121CF185C8
:050476000881D00822FE
:0A047B00C008858108C082C083C05C
:0D048500F0058105817448C0E07582D01239
:0C049200026BAD8215818D327447C0E012
:0C049E007582D012026BAD8215818D3189
:0E04AA007446C0E07582D012026BAD821581DF
:0C04B8008D307445C0E07582D012026BDC
:0C04C400AD8215818D2F7444C0E075825C
:0C04D000D012026BAD8215818D2E74439A
:0D04DC00C0E07582D012026BAD8215818DDB
:0A04E9002D8D067D00AF2E7A00EF86
:0C04F3004205EA4206A808088682088636
:0E04FF00830886F0ED121CF1A3EE121CF1A88A
:0C050D000808740226FAE40836FB088691
:0A05190004AD2FE5082404F808A63D
:0A05230005187600AF307D00E508F2
:0E052D002404F8E6420708E642058A828B8322
:0C053B008CF0EF121CF1A3ED121CF1A8D3
:0C0547000808740426FAE40836FB088655
:0A05530004AD31E5082404F808A601
:0A055D0005187600AF327D00E508B6
:0E0567002404F8E6420708E642058A828B83E8
:0C0575008CF0EF121CF1A3ED121CF185BC
:050581000881D00822F2
:0E0586007480C0E0746BC0E07582D012023E3B
:0A059400158115819000640201BA80
:0A059E00C008E581F5082410F5817E
:0C05A800E5082406F876000876001874B8
:0E05B4000228F9770009770019740428FAC0AC
:0C05C20000A8027600087600E508240C72
:0E05CE00F87600D0007C00758901758CFC75F4
:0E05DC008A18D2A9D2AFD28CD281D280C002AE
:0D05EA00C004C000C0011200951202B3123F
:0A05F70016A8D001D000D004D002F5
:09060100C000A80808A63308A6F1
:07060A0034D000E4F533F5E4
:0C06110034F59090002175F040C002C04C
:0E061D0004C000C00112037090002775F04069
:0E062B0012047BD001D000D004D0027590FFE5
:0B063900C000E5082403F87600D000A4
:0C064400C000E5082403F8C3E6648094BD
:0806500083D00040030207B74C
:0C065800C004C000E5082403F8E625E01B
:0A066400FC2427F88603088605E54C
:0A066E00082403F8E62435F8E6FE40
:0C0678003395E0FFEBC39EFBED9FFDE51A
:0A068400082404F8A60308A605E503
:0A068E00082404F8C001E508240D5B
:0E069800F9E6F70809E6F7E63395E009F709F9
:0C06A600F7D001A808088603088606E6C5
:0E06B2003395E0FDFFD000C002C004C000C0C0
:0C06C00001C003C006C005C007C000E573
:0C06CC0008240DF886820886830886F05A
:0E06D80008E6D000121DEFAB82AD83AEF0FF3E
:0E06E600E58124FCF5817441C0E0740CC0E095
:0D06F400E4C0E0C0E08B828D838EF0EF1239
:0E0701001D2CAB82AD83FFE58124FCF581D079
:0C070F0001D000D004D002C000E5082496
:0E071B0004F8A60308A605D000EC28FEC000D6
:0C072900A8068603088604E5082404F8EE
:0E073500E62BFB08E63CFCA806A60308A6047B
:0E074300D000C374109B748E8CF063F0809510
:0E075100F0D004501AC000A8068603088605E2
:0E075F0074E02BFB74E33DFDA806A60308A67C
:03076D0005D000B4
:0C077000C000E5082403F8E625E0FBD0FB
:0E077C0000EB28FBC000A8038605088606D007
:0E078A0000C3ED94F0EE64809471501474205E
:0E079800C39DFD741C9EFEC000A803A60508AC
:0407A600A606D000D3
:0B07AA00C000E5082403F806D00002A0
:0207B5000644F8
:0C07B700C000A8028603088605A80808F8
:0C07C300A60308A605A8080808E620E721
:0507CF0004D000800DC4
:0C07D400A80808C3E496F608E496F6D0E6
:0107E0000018
:0E07E100C002C004C000C0017414C0E0E4C037
:0C07EF00E0C000A808088682088683D0BD
:0E07FB0000121E9CAB82AD83158115818B828E
:0E0809008D8312184AAB82AD83D001D000D08F
:0A08170004D0028B46C2D5E546303E
:06082100E704B2D5F40467
:0B082700F5F0E54630E704B2D5F4041C
:0E083200A430D50AF42401C5F0F43400C5F05A
:0E084000D39400F4B3F582741095F0F583C0E4
:0E084E0002C004C000C001120B92AB82D001A8
:0C085C00D000D004D0028B47C000A802DE
:0E0868008603088605D000ED30E707C3E4954F
:0408760046FB8B466C
:0E087A00C000A8028603088605D000C37408DB
:0E0888009B74878DF063F08095F04016C000E1
:0E089600A8028603088605D000C3EB94F8ED97
:0608A40064809478500707
:0708AA00C3E49547FB8B47F7
:0E08B100C002C004C000C0011218FBE4C0E089
:0E08BF00758200121BF315817402C0E0758271
:0E08CD0002121BF31581D001D000D004D0021E
:0C08DB00E544702C860308860518C374E1
:0E08E700649B74808DF063F08095F040118664
:0E08F5000308860518C3EB949CED6480947F85
:0209030050069C
:06090500760008760018E0
:0C090B00E542702C870309870519C374AE
:0E091700649B74808DF063F08095F040118732
:0E0925000309870519C3EB949CED6480947F51
:0209330050066C
:06093500760008760018B0
:02093B007B003F
:0B093D00C3EB648094834003020AF2C5
:0E094800EB2B28FDC000A8058682088683D010
:0E09560000C002C003C004C000C0017402C093
:0E096400E0E4C0E0121E9CAD82AE831581154A
:0E09720081D001D000D004D003D002C000E537
:0C098000082404F8A60508A606D000C054
:0E098C0002C003C004C000C001E4C0E08B82C2
:0E099A001201591581D001D000D004D003D035
:0C09A80002C000E5082404F808E630E76F
:0509B40004D000801ECC
:0E09B900D00075820AC002C003C004C000C096
:0E09C70001120104D001D000D004D003D002F0
:0209D500802B75
:0E09D70075820BC002C003C004C000C0011234
:0E09E5000104D001D000D004D003D002C00025
:0C09F300E5082404F8C3E496F608E49636
:0309FF00F6D0002F
:0E0A0200C002C003C004C000C00174E8C0E020
:0C0A10007403C0E0C000E5082404F88670
:0E0A1C0082088683D000121E9CAD82158115C3
:0E0A2A00818D82120104D001D000C000C001F5
:0C0A380074E8C0E07403C0E0C000E508F2
:0E0A44002404F88682088683D000121E5FAD5F
:0E0A520082AE83158115817464C0E0E4C0E0BB
:0E0A60008D828E83121E9CAD82158115818DB4
:0E0A6E0082120104D001D000C000C0017464E7
:0C0A7C00C0E0E4C0E0C000E5082404F87D
:0E0A88008682088683D000121E5FAD82AE8388
:0E0A960015811581740AC0E0E4C0E08D828EE7
:0D0AA40083121E9CAD82158115818D82127A
:0E0AB100010475820C120104D001D000C000B7
:0C0ABF00C001740AC0E0E4C0E0C000E523
:0C0ACB00082404F88682088683D00012FC
:0E0AD7001E5FAD82158115818D82120104D043
:0D0AE50001D000D004D003D0020B02093D67
:0E0AF20020B22AC002C004C000C0011216A823
:0E0B0000D001D000D004D00276000876001894
:0E0B0E00770009770019C000A802760008766B
:030B1C0000D00006
:0C0B1F0020A01EEC701BC000E508240C98
:060B2B00F8B6010280048F
:040B3100D000800B65
:0B0B3500E508240CF87600D0007C01DD
:0C0B400020A01CEC7019C000E508240C7B
:0C0B4C00F8E6D000700DC000E508240C95
:070B5800F87601D0007C01DA
:050B5F0030A0027C0043
:0C0B640030A10FC000E508240CF8E6D01A
:060B700000700302060103
:0E0B7600C002C004C000C001120BDED001D0CE
:0C0B840000D004D002020601850881D0D8
:020B9000082239
:080B9200AA82AB837C017D0007
:0E0B9A00C002C003C004C005C004C0058C82A8
:0E0BA8008D83121D0AAE82AF8315811581D098
:0E0BB60005D004D003D002C3EA9EEB64808F0A
:0E0BC400F063F08095F040070CBC00CA0D8075
:010BD200C75B
:0B0BD300EC24FFF582ED34FFF58322D7
:0A0BDE00C008E581F5082480F581C8
:0C0BE800E508240EF87600E804F9770018
:0E0BF400740228F97700740328F9770074045E
:0E0C020028F97700740528F97700740628F9A0
:0E0C10007700740728F97700740828F9770038
:0E0C1E00740928F97700740A28F97700740B1E
:0E0C2C0028F97700740C28F97700740D28F968
:0E0C3A007700740E28F97700740F28F9770000
:0E0C4800741028F97700741128F977007412DF
:0E0C560028F97700741328F97700741428F930
:0E0C64007700741528F97700741628F97700C8
:0E0C7200741728F97700741828F977007419A0
:0E0C800028F97700741A28F97700741B28F9F8
:0E0C8E007700741C28F97700741D28F9770090
:0E0C9C00741E28F97700741F28F97700742061
:0E0CAA0028F97700742128F97700742228F9C0
:0E0CB8007700742328F97700742428F9770058
:0E0CC600742528F97700742628F97700742722
:0E0CD40028F97700742828F97700742928F988
:0E0CE2007700742A28F97700742B28F9770020
:0E0CF000742C28F97700742D28F97700742EE3
:0E0CFE0028F97700742F28F97700743028F950
:0E0D0C007700743128F97700743228F97700E7
:0E0D1A00743328F97700743428F977007435A3
:0E0D280028F97700743628F97700743728F917
:0E0D36007700743828F97700743928F97700AF
:0E0D4400743A28F97700743B28F97700743C64
:0E0D520028F97700743D28F97700743E28F9DF
:0E0D60007700743F28F97700744028F9770077
:0E0D6E00744128F97700744228F97700744325
:0E0D7C0028F97700744428F97700744528F9A7
:0E0D8A007700744628F97700744728F977003F
:0E0D9800744828F97700744928F97700744AE6
:0E0DA60028F97700744B28F97700744C28F96F
:0E0DB4007700744D28F97700744E28F9770007
:0E0DC200744F28F97700745028F977007451A7
:0E0DD00028F97700745228F97700745328F937
:0E0DDE007700745428F97700745528F97700CF
:0E0DEC00745628F97700745728F97700745868
:0E0DFA0028F97700745928F97700745A28F9FF
:0E0E08007700745B28F97700745C28F9770096
:0E0E1600745D28F97700745E28F97700745F28
:0E0E240028F97700746028F97700746128F9C6
:0E0E32007700746228F97700746328F977005E
:0A0E4000E5082480F9E5082408F70E
:0C0E4A00C000E5082480F8740426F9E5D7
:0A0E5600082408FBE5082477F8EBF8
:0A0E600004F6E5082473F8E5082401
:0A0E6A0008F6E5082408FDE5082459
:0B0E740076F8ED04F6E5082408FEE522
:0A0E7F00082478F874042EF6E50844
:0C0E89002472F874032EF6A80808760006
:020E9500D0008B
:080E9700C000A80808B608001D
:070E9F00D0004003021679A8
:0A0EA600C000A80808087600D0007C
:090EB000C000A8080808B60E00F5
:070EB900D00040030215C543
:0C0EC000C001C000A8080808E625E0FCFE
:0A0ECC00E5082474F8EC24C6F6E4EF
:0A0ED600341F08F6E5082403F8763F
:050EE00000D000D0016C
:0A0EE500C000E5082403F8B602007F
:070EEF00D000400302133E96
:0C0EF600C001C000E5082403F8C001E5BD
:0C0F020008247BF9E675F003A4F7D00189
:0A0F0E00E5082480F8E508247BF9CB
:0C0F1800E726F9E5082479F8E904F6E57D
:0A0F2400082474F8C001E508240356
:0E0F2E00F9E726F582E40836F583D001E49356
:0A0F3C0075F003A4249CFBE4341FAD
:0C0F4600FF8B828F83A3E508247AF8A6B5
:0A0F520043E493FAE508247AF8C29C
:090F5C00D5E630E704B2D5F40437
:0A0F6500F5F0EA30E704B2D5F40419
:0E0F6F00A430D50AF42401C5F0F43400C5F016
:0C0F7D00FDACF08B828F83A3A3E5082459
:0A0F89007FF8A642E508247EF8E494
:0A0F930093F6E508247EF8C001E59E
:0C0F9D0008247FF9C2D5E730E704B2D584
:020FA900F4044E
:0A0FAB00F5F0E630E704B2D5F404D7
:0E0FB500A430D50AF42401C5F0F43400C5F0D0
:0E0FC300D001D000D39DF4B3FDEC95F0FCA25C
:0E0FD100E7CD33CD33A2E7CD33CD33CD54037E
:050FDF0030E10244FCBA
:0C0FE400FCC000E5082479F88600A60592
:0A0FF000E508247CF8740229F6E5F8
:0C0FFA0008247FF8C2D5E630E704B2D529
:02100600F404F0
:0A100800F5F0EA30E704B2D5F40475
:0E101200A430D50AF42401C5F0F43400C5F072
:0B102000FCAAF0E508247EF8C001E502
:0C102B0008247AF9C2D5E730E704B2D5FA
:02103700F404BF
:0A103900F5F0E630E704B2D5F40448
:0E104300A430D50AF42401C5F0F43400C5F041
:0E105100D001D0002CFCEA35F0FAA2E7CC3337
:0E105F00CC33A2E7CC33CC33CC540330E102C7
:02106D0044FC41
:0C106F00FAC000E508247CF88600A60406
:0D107B00D0008B828F83E493FBF7C2D5E594
:081088004530E704B2D5F40481
:0A109000F5F0EC30E704B2D5F404EB
:0E109A00A430D50AF42401C5F0F43400C5F0EA
:0C10A800FAAFF0C2D5E54430E704B2D541
:0210B400F40442
:0A10B600F5F0EB30E704B2D5F404C6
:0E10C000A430D50AF42401C5F0F43400C5F0C4
:0E10CE00D39AF4B3FAEF95F0FFA2E7CA33CA43
:0E10DC0033A2E7CA33CA33CA540330E10244D8
:0110EA00FC09
:0C10EB00FFC000E508247FF8A602D0003A
:0B10F700C2D5E54430E704B2D5F40494
:0A110200F5F0EC30E704B2D5F40478
:0E110C00A430D50AF42401C5F0F43400C5F077
:0C111A00FCAAF0C2D5E54530E704B2D5D0
:02112600F404CF
:0A112800F5F0EB30E704B2D5F40453
:0E113200A430D50AF42401C5F0F43400C5F051
:0E1140002CFCEA35F0FAA2E7CC33CC33A2E760
:0C114E00CC33CC33CC540330E10244FC21
:0C115A00FAA704C000E508247CF8860019
:0C116600C001E508247FF9E7F6D001D0B5
:0C11720000C2D5E54730E704B2D5F40414
:0A117E00F5F0EC30E704B2D5F404FC
:0E118800A430D50AF42401C5F0F43400C5F0FB
:0C119600FAABF0C2D5E54630E704B2D554
:0211A200F40453
:0A11A400F5F0ED30E704B2D5F404D5
:0E11AE00A430D50AF42401C5F0F43400C5F0D5
:0E11BC00D39AF4B3FAEB95F0FBA2E7CA33CA5C
:0E11CA0033A2E7CA33CA33CA540330E10244E9
:0111D800FC1A
:0C11D900FBC000E5082404F8A602D000CA
:0B11E500C2D5E54630E704B2D5F404A3
:0A11F000F5F0EC30E704B2D5F4048A
:0E11FA00A430D50AF42401C5F0F43400C5F089
:0C120800FCAAF0C2D5E54730E704B2D5DF
:02121400F404E0
:0A121600F5F0ED30E704B2D5F40462
:0E122000A430D50AF42401C5F0F43400C5F062
:0E122E002CFCEA35F0FAA2E7CC33CC33A2E771
:0C123C00CC33CC33CC540330E10244FC32
:0C124800C000E5082479F88600A604E543
:0A125400082404F8E6F7E508247FFB
:0E125E00F88602E63395E0FBD000748C2AFA85
:0E126C00E43BFBC006C000C001C002C00390FE
:0E127A004000121E9CAA82AB8315811581D004
:0C12880001D000D006C000E5082404F8E6
:0E1294008604E63395E0FDD000C002C003C022
:0E12A20006C000C001C002C0038C828D831202
:0E12B0001D0AAC82AD8315811581D001D000DE
:0E12BE00D006D003D002EDA2E7CC33CC33CC67
:0712CC00540130E00244FE72
:0C12D30074402CF7C000E5082480F8C02F
:0C12DF0001E508247BF9E726FCD001D0D3
:0E12EB0000EC04F9E7FC3395E0FDC3E49CFC45
:0E12F900E49DFDC006C000C001C002C0038C11
:0E130700828D83121D0AAA82AB831581158187
:0E131500D001D000D006EBA2E7CA33CA33CA1B
:07132300540130E00244FE1A
:0C132A00FB74202AF7C000E5082403F83B
:0813360006D000D001020EE513
:0C133E00C000E5082477F886008602D085
:0D134A0000E7C39AF582C006C000C0011282
:0E135700167FAA82D001D000D006C000A806E2
:0C1365008603E5082472F886008604D098
:0E13710000ECC39BF582C002C006C000C001A4
:0E137F0012167FAB82D001D000D006D002C380
:0E138D00EB64808AF063F08095F0E433FAC0E0
:0A139B0000E5082403F8A602E508A7
:0E13A5002403F8E6D000603DEE04FBC000A873
:0E13B300038604A8068605A803A605A806A6BC
:0C13C10004E5082478F8860086038B04FD
:0A13CD00E5082472F886008603E5A7
:0A13D700082478F88600A603E50854
:0913E1002472F88600A604D00075
:0C13EA00C000A8068603E5082472F886FF
:0E13F600008605D000C3ED64808BF063F080AC
:0D14040095F050388B04C000A806A605E541
:0A141100082472F88600A604E5081E
:0C141B002477F8860086038B04E5082483
:0C14270073F8740426FBA8038605E50892
:0D1433002477F88600A605A803A604D000C3
:0C144000C001C000A8068603E508247265
:0C144C00F88600E6C39BFBE5082405F8C9
:0C145800A603E5082476F886008605E56A
:0C146400082478F886008607D000EFC34B
:0E1470009DF582C006C000C00112167FAD823D
:0C147E00D001D000D006C000E508240614
:0C148A00F8A605E5082405F8E6A2E71323
:0B149600FFE5082476F886008605E5D7
:0A14A100082407F8A605E5082478E2
:0E14AB00F886008603D000C3ED64808BF063EA
:0C14B900F08095F0D00150047B0180020F
:0214C5007BFFAB
:0A14C7008B04C000A8068603D000C5
:0C14D100C000E5082472F886008605D0F3
:0E14DD0000C3ED64808BF063F08095F0500347
:0314EB000215B92E
:0C14EE00C000E5082403F8E6D000601DF3
:0A14FA00C000E5082407F8C001E572
:0A150400082404F9E6F7D001E50819
:09150E00247FF8A603D000801B25
:0A151700C000E5082404F8A603E56F
:0A152100082407F8C001E508247F44
:07152B00F9E6F7D001D00042
:0C153200C000E508247FF8C2D575F00861
:08153E00E630E704B2D5F40425
:061546008430D502F4041C
:0C154C00FDA80808EDC396FDD000ED20BE
:0E155800E736C3ED64809482502EC001C000BF
:0C156600E5082404F8E624D9FAD000EDD2
:0C15720075F032A42A28F98702C000E5B9
:0C157E0008247FF8740756D000901F94DA
:06158A0093FD4AF7D001B9
:0C159000C000E5082406F8EFC396FFD069
:0C159C0000EF30E714C000E5082407F859
:0C15A800EC26F6E5082405F8E62FFFD03D
:0115B4000036
:0415B5000B0214D140
:0C15B900C000A808080806D000020EB010
:0D15C500C006C000C001743BC0E0C000A81B
:0C15D20008088682D0001201591581D053
:0715DE0001D000D0067A00E5
:0315E500BA320017
:0E15E800502DEA28FBC000A8038682D000C068
:0E15F60002C003C006C000C0011201A7D00150
:0E160400D000D006D003D002C000A8037600AC
:05161200D0000A80CEAB
:0C161700C000A80808E604F582D000C05E
:0E16230006C000C001743BC0E01201591581E1
:08163100D001D000D0067A00C0
:03163900BA3200C2
:0E163C00502F74322A28FBC000A8038682D0EB
:0E164A0000C002C003C006C000C0011201A70C
:0E165800D001D000D006D003D002C000A803FD
:071666007600D0000A80CCE1
:0C166D00C000A808080606D000020E9776
:06167900850881D0082263
:0C167F00E582FA30E706C3E49AF5822207
:03168B008A82222E
:0E168E00C0E0C0D075D000758CFC758A660572
:06169C0033E4B533020542
:0116A2003413
:0516A300D0D0D0E032C0
:0A16A800C008E581F508240EF58165
:0C16B200A80808760008760018740228CA
:0E16BE00F97700097700740428F9770009779E
:0C16CC0000E5082407F9770009770019F1
:0E16D800740229C000F8760008760074042918
:0E16E600F87600087600740629F8760008767B
:0816F40000D0007590FF7A2A76
:0816FC008A031ABB20028020C2
:0D17040090002775F040C002C000C0011227
:09171100047B90002175F04012E8
:0A171A000370D001D000D00280D887
:06172400EA70030217D574
:0D172A00E590F4F5900590E590F4F59090B1
:0E173700002775F040C002C000C00112047B04
:08174500D001D000D0027B00AE
:0E174D00C3EB64809483502DC002EB2BFC286C
:0C175B00FDC000A8058606088607EC24E7
:0C17670027F88604088602EC2EFEEA3FFC
:0E177300FFA805A60608A607D0000BD002802E
:01178100CB9C
:0D17820090002175F040C002C000C00112AF
:0D178F0003701218FBD001D000D0027B00C7
:0E179C00C3EB64809484502DC002EB2B29FC1B
:0C17AA00C000A8048605088606EB244257
:0E17B600F8E6FF3395E0FAEF2DFDEA3EFEA8BF
:0D17C40004A60508A606D0000BD00280CBBD
:0417D1001A021724BD
:0217D5007A0098
:0E17D700C3EA648094835031EA2A28FBC000E4
:0E17E500A8038603088604D000ECC403CBC41E
:0E17F3000354076BCB5407CB6BCB30E20244A0
:01180100F8EE
:0C180200FCEA2435C000F8A603D0000A60
:02180E0080C791
:021810007A005C
:0E181200C3EA64809484502AEA2A29F88604E6
:0E18200008860518EDC403CCC40354076CCC35
:0A182E005407CC6CCC30E20244F801
:0C183800FD8C03EA2438F8A6030A80CED9
:06184400850881D0082296
:0E184A00AA82AB838A04EBCC25E0CC33FD747C
:0E185800B4C39AFEE49BFFC002C003C006C0EA
:0E18660007C006C0078C828D83121D0AAC825B
:0E187400AD8315811581D007D006D003D002B8
:0D188200C004C005C006C0078A828B831217
:0E188F001D0AAA82AB8315811581EB3395E00B
:0E189D00FEFF7434C39AFA749E9BFBE49EFE19
:0E18AB00E49FFF7480C0E0E4C0E0C0E0C0E055
:0E18B9008A828B838EF0EF121D2CAA82AB83E5
:0E18C700AEF0FFE58124FCF581D005D004EDE4
:0E18D5003395E0F8F9C002C003C006C0078CCE
:0E18E300828D8388F0E9121D2CAA82AB83E56A
:0A18F1008124FCF5818A828B83229A
:0A18FB00C0088581080581058105FC
:0A19050081AA21E522A2E7CA33CA35
:09190F0033CA540130E00244FE29
:051918008A42AB23E54B
:0C191D0024A2E7CB33CB33CB540130E0E5
:031929000244FE77
:05192C008B44AC25E531
:0C19310026A2E7CC33CC33CC540130E0CC
:03193D000244FE63
:051940008C438C45A85A
:0B1945000808A602EA3395E008F6E56A
:0C19500047FEFF3395E0FAC003C004C05E
:0C195C0006C007C002A8080886820886A2
:0E19680083121D0AAA82AD8315811581744079
:0E197600C0E0E4C0E08A828D83121E9CAA822B
:0C19840015811581D006D004D003E508C1
:0C1990002403F8A602AD46C2D5ED30E7F6
:05199C0004B2D5F404C3
:0A19A100F5F0EB30E704B2D5F404D2
:0E19AB00A430D50AF42401C5F0F43400C5F0D0
:0E19B900F58285F083C003C004C005C006742B
:0E19C70040C0E0E4C0E0121E9CAF8215811506
:0C19D50081D006D005E5082403F8E6C325
:0C19E1009FFF8F42ED3395E0FAC006C076
:0C19ED0007C005C002A808088682088612
:0E19F90083121D0AAA82AD83158115817440E8
:0E1A0700C0E0E4C0E08A828D83121E9CAA8299
:0E1A1500AD8315811581D007D006D004D00313
:0A1A2300C2D5EE30E704B2D5F4049A
:0A1A2D00F5F0EB30E704B2D5F40445
:0E1A3700A430D50AF42401C5F0F43400C5F043
:0E1A4500F58285F083C002C004C0077440C063
:0E1A5300E0E4C0E0121E9CAB82AD831581154D
:0C1A610081D007D004D002EB2AF544C26B
:091A6D00D5EF30E704B2D5F40412
:0A1A7600F5F0EF30E704B2D5F404F8
:0E1A8000A430D50AF42401C5F0F43400C5F0FA
:0D1A8E00FFAAF0C2D5EC30E704B2D5F40495
:0A1A9B00F5F0EC30E704B2D5F404D6
:0E1AA500A430D50AF42401C5F0F43400C5F0D5
:0E1AB3002FF582EA35F0F583120B92AA82AB72
:0A1AC10083A80808A60208A603E5A2
:0C1ACB0042FA3395E05403A2E0CA13CAAB
:0C1AD70013A2E0CA13CA13CAFBA8080837
:0E1AE300E6C0E008E6C0E08A828B83121E9CFB
:0A1AF100AA82158115818A42AA43DA
:0C1AFB00E5433395E05403A2E0CA13CA8F
:0C1B070013A2E0CA13CA13CAFBA8080806
:0E1B1300E6C0E008E6C0E08A828B83121E9CCA
:0C1B2100AA82AB83158115818A43C2D5CE
:091B2D00E54430E704B2D5F404EC
:0B1B3600F5F0E54430E704B2D5F404FC
:0E1B4100A430D50AF42401C5F0F43400C5F038
:0C1B4F00FAABF0C2D5E54530E704B2D592
:021B5B00F40490
:0B1B5D00F5F0E54530E704B2D5F404D4
:0E1B6800A430D50AF42401C5F0F43400C5F011
:0E1B76002AF582EB35F0F583120B92AA82ABB2
:0A1B840083A80808A60208A603AA19
:0A1B8E0044E5443395E05403A2E05F
:0D1B9800CA13CA13A2E0CA13CA13CAFBA8DD
:0C1BA5000808E6C0E008E6C0E08A828B79
:0C1BB10083121E9CAA82158115818A44B3
:0A1BBD00AA45E5453395E05403A264
:0E1BC700E0CA13CA13A2E0CA13CA13CAFBA8CD
:0C1BD5000808E6C0E008E6C0E08A828B49
:0C1BE10083121E9CAA82158115818A4582
:061BED00850881D00822EA
:091BF300C008858108E582FA248E
:0A1BFC0042F886038B04E50824FD7F
:0C1C0600F9E7042438F98705C2D5ED3059
:061C1200E704B2D5F40462
:0A1C1800F5F0EB30E704B2D5F40458
:0E1C2200A430D50AF42401C5F0F43400C5F056
:0C1C3000FBAEF0EA042442F98702C00079
:0A1C3C00E50824FDF8E62438F886D8
:0D1C460007D000C2D5EF30E704B2D5F4049A
:0A1C5300F5F0EA30E704B2D5F4041E
:0E1C5D00A430D50AF42401C5F0F43400C5F01B
:0E1C6B00D39BF4B3FBEE95F0FEA2E7CB33CB98
:0E1C790033A2E7CB33CB33CB540330E102442C
:011C8700FC60
:0D1C8800FEA603C2D5ED30E704B2D5F4048A
:0A1C9500F5F0EA30E704B2D5F404DC
:0E1C9F00A430D50AF42401C5F0F43400C5F0D9
:0D1CAD00FDABF0C2D5EF30E704B2D5F40472
:0A1CBA00F5F0EC30E704B2D5F404B5
:0E1CC400A430D50AF42401C5F0F43400C5F0B4
:0E1CD2002DFDEB35F0FBA2E7CD33CD33A2E7BD
:0C1CE000CD33CD33CD540330E10244FC81
:051CEC00A705D008224D
:0E1F53003E5149453E00427F400042615149E7
:0E1F6100462141454B311814127F102745458B
:0E1F6F0045393C4A494930017109050336499C
:0E1F7D00494936064949291E08083E08080849
:091F8B000808080800606000006D
:081F9400010204081020408046
:0E1F9C00F0F010F0101010F010101010F0F017
:0E1FAA00F0F010F010F0F01010F00000000049
:0E1FB80000000000000000000000000000001B
:0E1FC6000001010303020200040505070706DF
:0E1FD4000604000401050206030701020003D3
:0A1FE20000000000000000000000F5
:06004200E478FFF6D8FD92
:080020007900E94400601B7A3D
:0500280000901FEC78C0
:03002D000075A0BB
:0A00300000E493F2A308B8000205F3
:08003A00A0D9F4DAF275A0FF71
:0E1CF10020F71030F6118883A88220F507F640
:051CFF00A883758300BD
:011D040022BC
:031D0500F280F772
:021D0800F022C7
:0E1D0A0074FE2581F8E68582F0A4C0E0858293
:0E1D1800F018E6A4F582D0E025F0C58386F031
:061D2600A42583F58322D1
:080048007800E84400600A7929
:030050000075A098
:0600530000E4F309D8FCF3
:080059007800E84400600C7916
:0B00610000900000E4F0A3D8FCD9FAE6
:0E1D2C00FBC2D530E715D2D5E4C39582F5820F
:0D1D3A00E49583F583E495F0F5F0E49BFB60
:0E1D4700E58124FEF8E630E715B2D51818182D
:0E1D5500E4C396F6E40896F6E40896F6E40871
:021D630096F6F2
:0E1D6500181818121D8830D513FBE4C39582A0
:0E1D7300F582E49583F583E495F0F5F0E49BAA
:011D8100223F
:061D8200FBE58124FBF8E3
:0A1D8800E6F9087A20E4FCFDFEFFF6
:0E1D9200E5822582F582E58333F583E5F033A3
:0B1DA000F5F0EB33FB4017DAE980425E
:0E1DAB00E5822582F582E58333F583E5F0338A
:051DB900F5F0EB33FB27
:0E1DBE00EC33FCED33FDEE33FEEF33FFEC991A
:0E1DCC00ED96EE0896EF089618184013EC9965
:0E1DDA00FCED96FDEE0896FEEF0896FF181839
:031DE80043820132
:021DEB00DABE5E
:021DED00EB22E7
:03001300758147AD
:0A001600121F4FE582600302000E86
:0E1DEF00AAF0FB74FB2581F8E58286F0A9F0CE
:0E1DFD0008A4FCADF0E58389F0A42DFDE435CB
:0E1E0B00F0FEE58286F0A42DFDE5F03EFEE43B
:0E1E190033FFEA89F0A42EFEE5F03FFFE583DB
:0E1E270086F0A42EFEE5F03FFFE5820886F06F
:0E1E3500A42EFEE5F03FFFEB89F0A42FFFE5A1
:0E1E43008386F0A42FFFEA1886F0A42FFFE597
:0E1E510082080886F0A42F8EF08D838C8222EA
:0E1E5F00C2D5E58330E70DD2D5E4C39582F5F8
:061E6D0082E49583F58379
:0E1E7300E58124FEF8E630E70918E4C396F690
:041E8100E40896F6E5
:0E1E85008601188600121EE330D50BE4C395CB
:081E930082F582E49583F583DA
:011E9B002224
:0E1E9C00C2D5E58330E70DD2D5E4C39582F5BB
:061EAA0082E49583F5833C
:0E1EB000E58124FEF8E630E70AB2D518E4C357
:051EBE0096F6E4089611
:0E1EC300F918E6F8121F2830D50BE4C39582FB
:071ED100F582E49583F5831F
:011ED80022E7
:0A1ED900E58124FEF886011886005A
:061EE300E84960367A01B7
:0E1EE900E825E0F8E933400EF9E58298E5833C
:061EF7009940030A80EC93
:021EFD00C3E937
:051EFF0013F9E813F8DF
:0E1F0400C3E58298F5F0E583994005F58385E5
:021F1200F0825B
:091F1400C3E913F9E813F8DAE758
:011F1D0022A1
:0A1F1E00E58124FEF8E6F918E6F864
:051F28007A10E4FBFC4F
:0E1F2D00E58225E0F582E58333F583EB33FB97
:0E1F3B00EC33FCEB98F5F0EC994006FCABF0B3
:031F4900438201CF
:031F4C00DADF22B7
:041F4F007582002275
:00000001FF
